{
  "contractName": "Dice",
  "abi": [
    {
      "anonymous": false,
      "inputs": [
        {
          "indexed": false,
          "internalType": "uint256",
          "name": "diceId",
          "type": "uint256"
        }
      ],
      "name": "luckytimesEvent",
      "type": "event"
    },
    {
      "anonymous": false,
      "inputs": [
        {
          "indexed": false,
          "internalType": "uint256",
          "name": "diceId",
          "type": "uint256"
        },
        {
          "indexed": false,
          "internalType": "uint8",
          "name": "newNumber",
          "type": "uint8"
        }
      ],
      "name": "rolled",
      "type": "event"
    },
    {
      "anonymous": false,
      "inputs": [
        {
          "indexed": false,
          "internalType": "uint256",
          "name": "diceId",
          "type": "uint256"
        }
      ],
      "name": "rolling",
      "type": "event"
    },
    {
      "constant": true,
      "inputs": [
        {
          "internalType": "uint256",
          "name": "",
          "type": "uint256"
        }
      ],
      "name": "dices",
      "outputs": [
        {
          "internalType": "uint8",
          "name": "numberOfSides",
          "type": "uint8"
        },
        {
          "internalType": "uint8",
          "name": "color",
          "type": "uint8"
        },
        {
          "internalType": "uint8",
          "name": "currentNumber",
          "type": "uint8"
        },
        {
          "internalType": "enum Dice.diceState",
          "name": "state",
          "type": "uint8"
        },
        {
          "internalType": "uint256",
          "name": "creationValue",
          "type": "uint256"
        },
        {
          "internalType": "uint256",
          "name": "luckytimes",
          "type": "uint256"
        },
        {
          "internalType": "address",
          "name": "owner",
          "type": "address"
        },
        {
          "internalType": "address",
          "name": "prevOwner",
          "type": "address"
        }
      ],
      "payable": false,
      "stateMutability": "view",
      "type": "function"
    },
    {
      "constant": true,
      "inputs": [],
      "name": "numDices",
      "outputs": [
        {
          "internalType": "uint256",
          "name": "",
          "type": "uint256"
        }
      ],
      "payable": false,
      "stateMutability": "view",
      "type": "function"
    },
    {
      "constant": false,
      "inputs": [
        {
          "internalType": "uint8",
          "name": "numberOfSides",
          "type": "uint8"
        },
        {
          "internalType": "uint8",
          "name": "color",
          "type": "uint8"
        }
      ],
      "name": "add",
      "outputs": [
        {
          "internalType": "uint256",
          "name": "",
          "type": "uint256"
        }
      ],
      "payable": true,
      "stateMutability": "payable",
      "type": "function"
    },
    {
      "constant": false,
      "inputs": [
        {
          "internalType": "uint256",
          "name": "diceId",
          "type": "uint256"
        }
      ],
      "name": "roll",
      "outputs": [],
      "payable": false,
      "stateMutability": "nonpayable",
      "type": "function"
    },
    {
      "constant": false,
      "inputs": [
        {
          "internalType": "uint256",
          "name": "diceId",
          "type": "uint256"
        }
      ],
      "name": "stopRoll",
      "outputs": [],
      "payable": false,
      "stateMutability": "nonpayable",
      "type": "function"
    },
    {
      "constant": false,
      "inputs": [
        {
          "internalType": "uint256",
          "name": "diceId",
          "type": "uint256"
        },
        {
          "internalType": "address",
          "name": "newOwner",
          "type": "address"
        }
      ],
      "name": "transfer",
      "outputs": [],
      "payable": false,
      "stateMutability": "nonpayable",
      "type": "function"
    },
    {
      "constant": true,
      "inputs": [
        {
          "internalType": "uint256",
          "name": "diceId",
          "type": "uint256"
        }
      ],
      "name": "getDiceSides",
      "outputs": [
        {
          "internalType": "uint8",
          "name": "",
          "type": "uint8"
        }
      ],
      "payable": false,
      "stateMutability": "view",
      "type": "function"
    },
    {
      "constant": true,
      "inputs": [
        {
          "internalType": "uint256",
          "name": "diceId",
          "type": "uint256"
        }
      ],
      "name": "getDiceNumber",
      "outputs": [
        {
          "internalType": "uint8",
          "name": "",
          "type": "uint8"
        }
      ],
      "payable": false,
      "stateMutability": "view",
      "type": "function"
    },
    {
      "constant": true,
      "inputs": [
        {
          "internalType": "uint256",
          "name": "diceId",
          "type": "uint256"
        }
      ],
      "name": "getDiceValue",
      "outputs": [
        {
          "internalType": "uint256",
          "name": "",
          "type": "uint256"
        }
      ],
      "payable": false,
      "stateMutability": "view",
      "type": "function"
    },
    {
      "constant": true,
      "inputs": [
        {
          "internalType": "uint256",
          "name": "diceId",
          "type": "uint256"
        }
      ],
      "name": "getLuckyTimes",
      "outputs": [
        {
          "internalType": "uint256",
          "name": "",
          "type": "uint256"
        }
      ],
      "payable": false,
      "stateMutability": "view",
      "type": "function"
    },
    {
      "constant": false,
      "inputs": [
        {
          "internalType": "uint256",
          "name": "diceId",
          "type": "uint256"
        }
      ],
      "name": "destroyDice",
      "outputs": [],
      "payable": true,
      "stateMutability": "payable",
      "type": "function"
    },
    {
      "constant": true,
      "inputs": [
        {
          "internalType": "uint256",
          "name": "diceId",
          "type": "uint256"
        }
      ],
      "name": "getOwner",
      "outputs": [
        {
          "internalType": "address",
          "name": "",
          "type": "address"
        }
      ],
      "payable": false,
      "stateMutability": "view",
      "type": "function"
    },
    {
      "constant": true,
      "inputs": [
        {
          "internalType": "uint256",
          "name": "diceId",
          "type": "uint256"
        }
      ],
      "name": "getPrevOwner",
      "outputs": [
        {
          "internalType": "address",
          "name": "",
          "type": "address"
        }
      ],
      "payable": false,
      "stateMutability": "view",
      "type": "function"
    }
  ],
  "bytecode": "0x60806040526000805534801561001457600080fd5b50610ff9806100246000396000f3fe6080604052600436106100c25760003560e01c8063a98c5b711161007f578063c41a360a11610059578063c41a360a14610403578063de2271fe1461047e578063ee2fa39c146104a9578063f2d03fcf146104fe576100c2565b8063a98c5b7114610301578063b7760c8f14610356578063bb4e3f4d146103b1576100c2565b80631e76dcdd146100c75780631f7b4f301461010257806329265db01461013d5780638c8f53a41461016b578063912475ba146101ba578063a819604c146102b2575b600080fd5b3480156100d357600080fd5b50610100600480360360208110156100ea57600080fd5b8101908080359060200190929190505050610579565b005b34801561010e57600080fd5b5061013b6004803603602081101561012557600080fd5b8101908080359060200190929190505050610721565b005b6101696004803603602081101561015357600080fd5b81019080803590602001909291905050506107d2565b005b34801561017757600080fd5b506101a46004803603602081101561018e57600080fd5b8101908080359060200190929190505050610976565b6040518082815260200191505060405180910390f35b3480156101c657600080fd5b506101f3600480360360208110156101dd57600080fd5b81019080803590602001909291905050506109a6565b604051808960ff1660ff1681526020018860ff1660ff1681526020018760ff1660ff16815260200186600181111561022757fe5b60ff1681526020018581526020018481526020018373ffffffffffffffffffffffffffffffffffffffff1673ffffffffffffffffffffffffffffffffffffffff1681526020018273ffffffffffffffffffffffffffffffffffffffff1673ffffffffffffffffffffffffffffffffffffffff1681526020019850505050505050505060405180910390f35b3480156102be57600080fd5b506102eb600480360360208110156102d557600080fd5b8101908080359060200190929190505050610a62565b6040518082815260200191505060405180910390f35b34801561030d57600080fd5b5061033a6004803603602081101561032457600080fd5b8101908080359060200190929190505050610a92565b604051808260ff1660ff16815260200191505060405180910390f35b34801561036257600080fd5b506103af6004803603604081101561037957600080fd5b8101908080359060200190929190803573ffffffffffffffffffffffffffffffffffffffff169060200190929190505050610acf565b005b6103ed600480360360408110156103c757600080fd5b81019080803560ff169060200190929190803560ff169060200190929190505050610bc3565b6040518082815260200191505060405180910390f35b34801561040f57600080fd5b5061043c6004803603602081101561042657600080fd5b8101908080359060200190929190505050610e2d565b604051808273ffffffffffffffffffffffffffffffffffffffff1673ffffffffffffffffffffffffffffffffffffffff16815260200191505060405180910390f35b34801561048a57600080fd5b50610493610e7d565b6040518082815260200191505060405180910390f35b3480156104b557600080fd5b506104e2600480360360208110156104cc57600080fd5b8101908080359060200190929190505050610e83565b604051808260ff1660ff16815260200191505060405180910390f35b34801561050a57600080fd5b506105376004803603602081101561052157600080fd5b8101908080359060200190929190505050610ec0565b604051808273ffffffffffffffffffffffffffffffffffffffff1673ffffffffffffffffffffffffffffffffffffffff16815260200191505060405180910390f35b80600054811061058857600080fd5b60006001600084815260200190815260200160002060000160036101000a81548160ff021916908360018111156105bb57fe5b02179055506000600180600085815260200190815260200160002060000160009054906101000a900460ff1660ff1642816105f257fe5b06019050806001600085815260200190815260200160002060000160026101000a81548160ff021916908360ff1602179055506001600084815260200190815260200160002060000160009054906101000a900460ff1660ff166001600085815260200190815260200160002060000160029054906101000a900460ff1660ff1614156106d75760016000848152602001908152602001600020600201600081548092919060010191905055507f2352c307370c87494ff4d210aed715fb1369dd065db4eb1de29183e96c2af4ec836040518082815260200191505060405180910390a15b7ffca7e5ead94c99a33f4db0e5e7ed5266f833f73d27b83852ab0429662c60f5bf8382604051808381526020018260ff1660ff1681526020019250505060405180910390a1505050565b80600054811061073057600080fd5b600180600084815260200190815260200160002060000160036101000a81548160ff0219169083600181111561076257fe5b021790555060006001600084815260200190815260200160002060000160026101000a81548160ff021916908360ff1602179055507f168812357336ee7b54afff4280d17ba364831e5c2d0eb5a3fa2d2634e5e77a86826040518082815260200191505060405180910390a15050565b803373ffffffffffffffffffffffffffffffffffffffff166001600083815260200190815260200160002060030160009054906101000a900473ffffffffffffffffffffffffffffffffffffffff1673ffffffffffffffffffffffffffffffffffffffff161461084157600080fd5b81600054811061085057600080fd5b3373ffffffffffffffffffffffffffffffffffffffff166108fc60016000868152602001908152602001600020600101549081150290604051600060405180830381858888f193505050501580156108ac573d6000803e3d6000fd5b5060016000848152602001908152602001600020600080820160006101000a81549060ff02191690556000820160016101000a81549060ff02191690556000820160026101000a81549060ff02191690556000820160036101000a81549060ff0219169055600182016000905560028201600090556003820160006101000a81549073ffffffffffffffffffffffffffffffffffffffff02191690556004820160006101000a81549073ffffffffffffffffffffffffffffffffffffffff02191690555050505050565b600081600054811061098757600080fd5b6001600084815260200190815260200160002060020154915050919050565b60016020528060005260406000206000915090508060000160009054906101000a900460ff16908060000160019054906101000a900460ff16908060000160029054906101000a900460ff16908060000160039054906101000a900460ff16908060010154908060020154908060030160009054906101000a900473ffffffffffffffffffffffffffffffffffffffff16908060040160009054906101000a900473ffffffffffffffffffffffffffffffffffffffff16905088565b6000816000548110610a7357600080fd5b6001600084815260200190815260200160002060010154915050919050565b6000816000548110610aa357600080fd5b6001600084815260200190815260200160002060000160029054906101000a900460ff16915050919050565b816000548110610ade57600080fd5b6001600084815260200190815260200160002060030160009054906101000a900473ffffffffffffffffffffffffffffffffffffffff166001600085815260200190815260200160002060040160006101000a81548173ffffffffffffffffffffffffffffffffffffffff021916908373ffffffffffffffffffffffffffffffffffffffff160217905550816001600085815260200190815260200160002060030160006101000a81548173ffffffffffffffffffffffffffffffffffffffff021916908373ffffffffffffffffffffffffffffffffffffffff160217905550505050565b6000808360ff1611610bd457600080fd5b662386f26fc100003411610c33576040517f08c379a000000000000000000000000000000000000000000000000000000000815260040180806020018281038252602f815260200180610f96602f913960400191505060405180910390fd5b610c3b610f10565b6040518061010001604052808560ff1681526020018460ff16815260200160018660ff164281610c6757fe5b060160ff16815260200160006001811115610c7e57fe5b8152602001348152602001600081526020013373ffffffffffffffffffffffffffffffffffffffff168152602001600073ffffffffffffffffffffffffffffffffffffffff1681525090506000806000815480929190600101919050559050816001600083815260200190815260200160002060008201518160000160006101000a81548160ff021916908360ff16021790555060208201518160000160016101000a81548160ff021916908360ff16021790555060408201518160000160026101000a81548160ff021916908360ff16021790555060608201518160000160036101000a81548160ff02191690836001811115610d7857fe5b02179055506080820151816001015560a0820151816002015560c08201518160030160006101000a81548173ffffffffffffffffffffffffffffffffffffffff021916908373ffffffffffffffffffffffffffffffffffffffff16021790555060e08201518160040160006101000a81548173ffffffffffffffffffffffffffffffffffffffff021916908373ffffffffffffffffffffffffffffffffffffffff160217905550905050809250505092915050565b6000816000548110610e3e57600080fd5b6001600084815260200190815260200160002060030160009054906101000a900473ffffffffffffffffffffffffffffffffffffffff16915050919050565b60005481565b6000816000548110610e9457600080fd5b6001600084815260200190815260200160002060000160009054906101000a900460ff16915050919050565b6000816000548110610ed157600080fd5b6001600084815260200190815260200160002060040160009054906101000a900473ffffffffffffffffffffffffffffffffffffffff16915050919050565b604051806101000160405280600060ff168152602001600060ff168152602001600060ff16815260200160006001811115610f4757fe5b81526020016000815260200160008152602001600073ffffffffffffffffffffffffffffffffffffffff168152602001600073ffffffffffffffffffffffffffffffffffffffff168152509056fe6174206c6561737420302e303120455448206973206e656564656420746f20737061776e2061206e65772064696365a265627a7a72315820813eabb7da3ca571a5368daa7fd3c2b092087a910d7872f3096996d10fa935ab64736f6c63430005100032",
  "source": "pragma solidity ^0.5.0;\n\ncontract Dice {\n    \n    enum diceState { stationary, rolling }\n    \n    struct dice {\n        uint8 numberOfSides;\n        uint8 color;\n        uint8 currentNumber;\n        diceState state;\n        uint256 creationValue; // amount given to smart contract in ETH when dice is created\n        uint256 luckytimes;\n        address owner;\n        address prevOwner;\n    }\n    \n    event rolling (uint256 diceId);\n    event rolled (uint256 diceId, uint8 newNumber);\n    event luckytimesEvent(uint256 diceId);\n    \n    uint256 public numDices = 0;\n    mapping(uint256 => dice) public dices;\n\n    \n    //function to create a new dice, and add to 'dices' map. requires at least 0.01ETH to create\n    function add(\n        uint8 numberOfSides,\n        uint8 color\n    ) public payable returns(uint256) {\n        require(numberOfSides > 0);\n        require(msg.value > 0.01 ether, \"at least 0.01 ETH is needed to spawn a new dice\");\n        \n        //new dice object\n        dice memory newDice = dice(\n            numberOfSides,\n            color,\n            (uint8)(block.timestamp % numberOfSides) + 1,  //non-secure random number\n            diceState.stationary,\n            msg.value,\n            0,\n            msg.sender,  //owner\n            address(0)\n        );\n        \n        uint256 newDiceId = numDices++;\n        dices[newDiceId] = newDice; //commit to state variable\n        return newDiceId;   //return new diceId\n    }\n\n    //modifier to ensure a function is callable only by its owner    \n    modifier ownerOnly(uint256 diceId) {\n        require(dices[diceId].owner == msg.sender);\n        _;\n    }\n    \n    modifier validDiceId(uint256 diceId) {\n        require(diceId < numDices);\n        _;\n    }\n\n    //owner can roll a dice    \n    function roll(uint256 diceId) public validDiceId(diceId) {\n            dices[diceId].state = diceState.rolling;    //set state to rolling\n            dices[diceId].currentNumber = 0;    //number will become 0 while rolling\n            emit rolling(diceId);   //emit rolling event\n    }\n\n    function stopRoll(uint256 diceId) public validDiceId(diceId) {\n            dices[diceId].state = diceState.stationary; //set state to stationary\n            \n            //this is not a secure randomization\n            uint8 newNumber = (uint8)(block.timestamp % dices[diceId].numberOfSides) + 1;\n            dices[diceId].currentNumber = newNumber;\n            if(dices[diceId].currentNumber == dices[diceId].numberOfSides){\n                dices[diceId].luckytimes++;\n                emit luckytimesEvent(diceId);\n            }\n            emit rolled(diceId, newNumber); //emit rolled\n    }\n    \n    //transfer ownership to new owner\n    function transfer(uint256 diceId, address newOwner) public validDiceId(diceId) {\n        dices[diceId].prevOwner = dices[diceId].owner;\n        dices[diceId].owner = newOwner;\n    }\n\n    //get number of sides of dice    \n    function getDiceSides(uint256 diceId) public view validDiceId(diceId) returns (uint8) {\n        return dices[diceId].numberOfSides;\n    }\n\n    //get current dice number\n    function getDiceNumber(uint256 diceId) public view validDiceId(diceId) returns (uint8) {\n        return dices[diceId].currentNumber;\n    }\n\n    //get ether put in during creation\n    function getDiceValue(uint256 diceId) public view validDiceId(diceId) returns (uint256) {\n        return dices[diceId].creationValue;\n    }\n    \n    \n    function getLuckyTimes(uint256 diceId) public view validDiceId(diceId) returns(uint256){\n        return dices[diceId].luckytimes;   \n    }\n    \n    function destroyDice(uint256 diceId) payable public ownerOnly(diceId) validDiceId(diceId) {\n        msg.sender.transfer(dices[diceId].creationValue);\n        delete dices[diceId];\n    }\n    \n    function getOwner(uint256 diceId) external view validDiceId(diceId) returns (address) {\n        return dices[diceId].owner;\n    }\n    \n    function getPrevOwner(uint256 diceId) external view validDiceId(diceId) returns(address) {\n        return dices[diceId].prevOwner;\n    }\n    \n}\n",
  "sourcePath": "C:\\Users\\TP_baseline\\Desktop\\IS4302lab3\\contracts\\Dice.sol",
  "compiler": {
    "name": "solc",
    "version": "0.5.16+commit.9c3226ce.Emscripten.clang"
  },
  "schemaVersion": "3.0.23",
  "updatedAt": "2020-02-16T05:07:09.753Z",
  "networkType": "ethereum",
  "devdoc": {
    "methods": {}
  },
  "userdoc": {
    "methods": {}
  }
}