{
  "contractName": "DiceBattle",
  "abi": [
    {
      "inputs": [
        {
          "internalType": "contract Dice",
          "name": "diceAddress",
          "type": "address"
        }
      ],
      "payable": false,
      "stateMutability": "nonpayable",
      "type": "constructor"
    },
    {
      "anonymous": false,
      "inputs": [
        {
          "indexed": false,
          "internalType": "uint256",
          "name": "myDice",
          "type": "uint256"
        },
        {
          "indexed": false,
          "internalType": "uint256",
          "name": "enemyDice",
          "type": "uint256"
        }
      ],
      "name": "battleDraw",
      "type": "event"
    },
    {
      "anonymous": false,
      "inputs": [
        {
          "indexed": false,
          "internalType": "uint256",
          "name": "myDice",
          "type": "uint256"
        },
        {
          "indexed": false,
          "internalType": "uint256",
          "name": "enemyDice",
          "type": "uint256"
        }
      ],
      "name": "battlewin",
      "type": "event"
    },
    {
      "constant": false,
      "inputs": [
        {
          "internalType": "uint256",
          "name": "myDice",
          "type": "uint256"
        },
        {
          "internalType": "uint256",
          "name": "enemyDice",
          "type": "uint256"
        }
      ],
      "name": "battle",
      "outputs": [],
      "payable": false,
      "stateMutability": "nonpayable",
      "type": "function"
    },
    {
      "constant": true,
      "inputs": [
        {
          "internalType": "uint256",
          "name": "id",
          "type": "uint256"
        }
      ],
      "name": "getDiceOwner",
      "outputs": [
        {
          "internalType": "address",
          "name": "",
          "type": "address"
        }
      ],
      "payable": false,
      "stateMutability": "view",
      "type": "function"
    },
    {
      "constant": true,
      "inputs": [
        {
          "internalType": "uint256",
          "name": "diceId",
          "type": "uint256"
        }
      ],
      "name": "getDiceNumber",
      "outputs": [
        {
          "internalType": "uint256",
          "name": "",
          "type": "uint256"
        }
      ],
      "payable": false,
      "stateMutability": "view",
      "type": "function"
    }
  ],
  "bytecode": "0x608060405234801561001057600080fd5b506040516111203803806111208339818101604052602081101561003357600080fd5b8101908080519060200190929190505050806000806101000a81548173ffffffffffffffffffffffffffffffffffffffff021916908373ffffffffffffffffffffffffffffffffffffffff1602179055505061108c806100946000396000f3fe608060405234801561001057600080fd5b50600436106100415760003560e01c80632a0c52211461004657806383d38e401461007e578063a98c5b71146100ec575b600080fd5b61007c6004803603604081101561005c57600080fd5b81019080803590602001909291908035906020019092919050505061012e565b005b6100aa6004803603602081101561009457600080fd5b8101908080359060200190929190505050610ee8565b604051808273ffffffffffffffffffffffffffffffffffffffff1673ffffffffffffffffffffffffffffffffffffffff16815260200191505060405180910390f35b6101186004803603602081101561010257600080fd5b8101908080359060200190929190505050610f9e565b6040518082815260200191505060405180910390f35b3373ffffffffffffffffffffffffffffffffffffffff166000809054906101000a900473ffffffffffffffffffffffffffffffffffffffff1673ffffffffffffffffffffffffffffffffffffffff1663f2d03fcf846040518263ffffffff1660e01b81526004018082815260200191505060206040518083038186803b1580156101b757600080fd5b505afa1580156101cb573d6000803e3d6000fd5b505050506040513d60208110156101e157600080fd5b810190808051906020019092919050505073ffffffffffffffffffffffffffffffffffffffff161461021257600080fd5b6000809054906101000a900473ffffffffffffffffffffffffffffffffffffffff1673ffffffffffffffffffffffffffffffffffffffff16631f7b4f30836040518263ffffffff1660e01b815260040180828152602001915050600060405180830381600087803b15801561028657600080fd5b505af115801561029a573d6000803e3d6000fd5b505050506000809054906101000a900473ffffffffffffffffffffffffffffffffffffffff1673ffffffffffffffffffffffffffffffffffffffff16631e76dcdd836040518263ffffffff1660e01b815260040180828152602001915050600060405180830381600087803b15801561031257600080fd5b505af1158015610326573d6000803e3d6000fd5b505050506000809054906101000a900473ffffffffffffffffffffffffffffffffffffffff1673ffffffffffffffffffffffffffffffffffffffff16631f7b4f30826040518263ffffffff1660e01b815260040180828152602001915050600060405180830381600087803b15801561039e57600080fd5b505af11580156103b2573d6000803e3d6000fd5b505050506000809054906101000a900473ffffffffffffffffffffffffffffffffffffffff1673ffffffffffffffffffffffffffffffffffffffff16631e76dcdd826040518263ffffffff1660e01b815260040180828152602001915050600060405180830381600087803b15801561042a57600080fd5b505af115801561043e573d6000803e3d6000fd5b505050506000809054906101000a900473ffffffffffffffffffffffffffffffffffffffff1673ffffffffffffffffffffffffffffffffffffffff1663a98c5b71826040518263ffffffff1660e01b81526004018082815260200191505060206040518083038186803b1580156104b457600080fd5b505afa1580156104c8573d6000803e3d6000fd5b505050506040513d60208110156104de57600080fd5b810190808051906020019092919050505060ff166000809054906101000a900473ffffffffffffffffffffffffffffffffffffffff1673ffffffffffffffffffffffffffffffffffffffff1663a98c5b71846040518263ffffffff1660e01b81526004018082815260200191505060206040518083038186803b15801561056457600080fd5b505afa158015610578573d6000803e3d6000fd5b505050506040513d602081101561058e57600080fd5b810190808051906020019092919050505060ff1611156108c0576000809054906101000a900473ffffffffffffffffffffffffffffffffffffffff1673ffffffffffffffffffffffffffffffffffffffff1663b7760c8f836000809054906101000a900473ffffffffffffffffffffffffffffffffffffffff1673ffffffffffffffffffffffffffffffffffffffff1663f2d03fcf856040518263ffffffff1660e01b81526004018082815260200191505060206040518083038186803b15801561065857600080fd5b505afa15801561066c573d6000803e3d6000fd5b505050506040513d602081101561068257600080fd5b81019080805190602001909291905050506040518363ffffffff1660e01b8152600401808381526020018273ffffffffffffffffffffffffffffffffffffffff1673ffffffffffffffffffffffffffffffffffffffff16815260200192505050600060405180830381600087803b1580156106fc57600080fd5b505af1158015610710573d6000803e3d6000fd5b505050506000809054906101000a900473ffffffffffffffffffffffffffffffffffffffff1673ffffffffffffffffffffffffffffffffffffffff1663b7760c8f826000809054906101000a900473ffffffffffffffffffffffffffffffffffffffff1673ffffffffffffffffffffffffffffffffffffffff1663f2d03fcf856040518263ffffffff1660e01b81526004018082815260200191505060206040518083038186803b1580156107c457600080fd5b505afa1580156107d8573d6000803e3d6000fd5b505050506040513d60208110156107ee57600080fd5b81019080805190602001909291905050506040518363ffffffff1660e01b8152600401808381526020018273ffffffffffffffffffffffffffffffffffffffff1673ffffffffffffffffffffffffffffffffffffffff16815260200192505050600060405180830381600087803b15801561086857600080fd5b505af115801561087c573d6000803e3d6000fd5b505050507fc2267b77fc5e8f75164e18937156243c0c617346d1a70e2cd9c804f14872bee58282604051808381526020018281526020019250505060405180910390a15b6000809054906101000a900473ffffffffffffffffffffffffffffffffffffffff1673ffffffffffffffffffffffffffffffffffffffff1663a98c5b71826040518263ffffffff1660e01b81526004018082815260200191505060206040518083038186803b15801561093257600080fd5b505afa158015610946573d6000803e3d6000fd5b505050506040513d602081101561095c57600080fd5b810190808051906020019092919050505060ff166000809054906101000a900473ffffffffffffffffffffffffffffffffffffffff1673ffffffffffffffffffffffffffffffffffffffff1663a98c5b71846040518263ffffffff1660e01b81526004018082815260200191505060206040518083038186803b1580156109e257600080fd5b505afa1580156109f6573d6000803e3d6000fd5b505050506040513d6020811015610a0c57600080fd5b810190808051906020019092919050505060ff161015610d3e576000809054906101000a900473ffffffffffffffffffffffffffffffffffffffff1673ffffffffffffffffffffffffffffffffffffffff1663b7760c8f826000809054906101000a900473ffffffffffffffffffffffffffffffffffffffff1673ffffffffffffffffffffffffffffffffffffffff1663f2d03fcf866040518263ffffffff1660e01b81526004018082815260200191505060206040518083038186803b158015610ad657600080fd5b505afa158015610aea573d6000803e3d6000fd5b505050506040513d6020811015610b0057600080fd5b81019080805190602001909291905050506040518363ffffffff1660e01b8152600401808381526020018273ffffffffffffffffffffffffffffffffffffffff1673ffffffffffffffffffffffffffffffffffffffff16815260200192505050600060405180830381600087803b158015610b7a57600080fd5b505af1158015610b8e573d6000803e3d6000fd5b505050506000809054906101000a900473ffffffffffffffffffffffffffffffffffffffff1673ffffffffffffffffffffffffffffffffffffffff1663b7760c8f836000809054906101000a900473ffffffffffffffffffffffffffffffffffffffff1673ffffffffffffffffffffffffffffffffffffffff1663f2d03fcf866040518263ffffffff1660e01b81526004018082815260200191505060206040518083038186803b158015610c4257600080fd5b505afa158015610c56573d6000803e3d6000fd5b505050506040513d6020811015610c6c57600080fd5b81019080805190602001909291905050506040518363ffffffff1660e01b8152600401808381526020018273ffffffffffffffffffffffffffffffffffffffff1673ffffffffffffffffffffffffffffffffffffffff16815260200192505050600060405180830381600087803b158015610ce657600080fd5b505af1158015610cfa573d6000803e3d6000fd5b505050507fc2267b77fc5e8f75164e18937156243c0c617346d1a70e2cd9c804f14872bee58183604051808381526020018281526020019250505060405180910390a15b6000809054906101000a900473ffffffffffffffffffffffffffffffffffffffff1673ffffffffffffffffffffffffffffffffffffffff1663a98c5b71826040518263ffffffff1660e01b81526004018082815260200191505060206040518083038186803b158015610db057600080fd5b505afa158015610dc4573d6000803e3d6000fd5b505050506040513d6020811015610dda57600080fd5b810190808051906020019092919050505060ff166000809054906101000a900473ffffffffffffffffffffffffffffffffffffffff1673ffffffffffffffffffffffffffffffffffffffff1663a98c5b71846040518263ffffffff1660e01b81526004018082815260200191505060206040518083038186803b158015610e6057600080fd5b505afa158015610e74573d6000803e3d6000fd5b505050506040513d6020811015610e8a57600080fd5b810190808051906020019092919050505060ff161415610ee4577ff9f3f9f974abd92da34cad64679308739d89b21de31bbd9bcb8de3fad1a8227e8282604051808381526020018281526020019250505060405180910390a15b5050565b60008060009054906101000a900473ffffffffffffffffffffffffffffffffffffffff1673ffffffffffffffffffffffffffffffffffffffff1663f2d03fcf836040518263ffffffff1660e01b81526004018082815260200191505060206040518083038186803b158015610f5c57600080fd5b505afa158015610f70573d6000803e3d6000fd5b505050506040513d6020811015610f8657600080fd5b81019080805190602001909291905050509050919050565b60008060009054906101000a900473ffffffffffffffffffffffffffffffffffffffff1673ffffffffffffffffffffffffffffffffffffffff1663a98c5b71836040518263ffffffff1660e01b81526004018082815260200191505060206040518083038186803b15801561101257600080fd5b505afa158015611026573d6000803e3d6000fd5b505050506040513d602081101561103c57600080fd5b810190808051906020019092919050505060ff16905091905056fea265627a7a72315820cca3682ea667d210223e45ba87b4f01bddb9c2351069cb82509cbfc433db5d4064736f6c63430005100032",
  "source": "pragma solidity ^0.5.0;\nimport \"./Dice.sol\";\n\ncontract DiceBattle {\n\n   //mapping(uint256 => address) ownership;\n\n    Dice diceContract;\n\n    constructor(Dice diceAddress) public {\n        diceContract = diceAddress;\n    }\n\n    event battlewin(uint256 myDice,uint256 enemyDice);\n    event battleDraw(uint256 myDice,uint256 enemyDice);\n\n    // function list(uint256 diceId) public {\n    //   require(diceContract.getOwner(diceId) == msg.sender);\n    //   ownership[diceId] = diceContract.getPrevOwner(diceId);\n    // }\n\n    // function unlist(uint256 id) public {\n    //     diceContract.transfer(id, ownership[id]);\n    //     delete ownership[id];\n    // }\n\n    function battle(uint256 myDice, uint256 enemyDice) public {\n        //require(ownership[myDice] != address(0));\n        //require(ownership[enemyDice] != address(0));\n        require(diceContract.getPrevOwner(myDice) == msg.sender);\n\n        diceContract.roll(myDice);\n        diceContract.stopRoll(myDice);\n        diceContract.roll(enemyDice);\n        diceContract.stopRoll(enemyDice);\n\n      if ( diceContract.getDiceNumber(myDice) > diceContract.getDiceNumber(enemyDice) ) {\n          //ownership[myDice] = ownership[enemyDice];\n          //unlist(myDice);\n          diceContract.transfer(myDice,diceContract.getPrevOwner(enemyDice)); //last owner before sending to DiceBattle\n          diceContract.transfer(enemyDice,diceContract.getPrevOwner(enemyDice));\n          emit battlewin(myDice,enemyDice);\n      }\n     if ( diceContract.getDiceNumber(myDice) < diceContract.getDiceNumber(enemyDice) ) {\n          //ownership[enemyDice] = ownership[myDice];\n          //unlist(enemyDice);\n          diceContract.transfer(enemyDice,diceContract.getPrevOwner(myDice)); //last owner before sending to DiceBattle\n          diceContract.transfer(myDice,diceContract.getPrevOwner(myDice));\n          emit battlewin(enemyDice,myDice);\n      }\n      if ( diceContract.getDiceNumber(myDice) == diceContract.getDiceNumber(enemyDice) ) {\n          emit battleDraw(myDice,enemyDice);\n      }\n    }\n\n    // function getOwner(uint256 id) public view  returns (address){\n    //     return ownership[id];\n    // }\n\n    function getDiceOwner(uint256 id) public view  returns (address){\n        return diceContract.getPrevOwner(id);\n    }\n\n    function getDiceNumber (uint256 diceId) public view returns (uint256) {\n        return diceContract.getDiceNumber(diceId);\n    }\n\n}\n",
  "sourcePath": "C:\\Users\\TP_baseline\\Desktop\\IS4302lab3\\contracts\\DiceBattle.sol",
  "compiler": {
    "name": "solc",
    "version": "0.5.16+commit.9c3226ce.Emscripten.clang"
  },
  "schemaVersion": "3.0.23",
  "updatedAt": "2020-02-16T05:07:09.760Z",
  "networkType": "ethereum",
  "devdoc": {
    "methods": {}
  },
  "userdoc": {
    "methods": {}
  }
}